:100000000C94E0000C9418010C9418010C94180145
:100010000C9418010C9418010C9418010C941801FC
:100020000C9418010C9418010C94DA190C94AD1A64
:100030000C94F0140C9418010C9418010C941801F1
:100040000C9418010C9418010C9418010C941801CC
:100050000C9418010C9488150C9418010C94180138
:100060000C9418010C9418010C9418010C941801AC
:100070000C9418010C9418010C9418010C9418019C
:100080000C9418010C9418010C9418010C9418018C
:100090000C9418010C9418010C9418010C9418017C
:1000A0000C9418010C9418010C94180100001E0304
:1000B00054007200610063006B00620061006C001C
:1000C0006C0020004E0061006E006F000000120303
:1000D00050006C006F006F007000790043006F00EB
:1000E00000000403090409023B00020100A03209D8
:1000F0000400000103010100092111010001224453
:100100000007058103080001090401000103000044
:100110000009211101000122490007058203200086
:100120000112010002000000084350A35401000125
:1001300002000105010902A10185020901A10005D2
:100140000919012908150025019508750181020585
:1001500001093009311581257F950275088106094D
:10016000381581257F950175088106050C0A38022E
:100170001581257F950175088106C0C00501090616
:10018000A101050719E029E715002501950875016A
:1001900081029501750881010507190029FF1500E5
:1001A00026FF009506750881000508190129051527
:1001B000002501950575019102950175039101C016
:1001C00011241FBECFEFDAE0DEBFCDBF04B603FEC1
:1001D00018C08091EB019091EC01A091ED01B091DC
:1001E000EE018730904BA740B04B59F41092EB01D1
:1001F0001092EC011092ED011092EE01E0E0F8E3B4
:10020000099511E0A0E0B1E0E4EDFDE302C0059046
:100210000D92A233B107D9F721E0A2E3B1E001C00A
:100220001D92AB3EB207E1F70E9484100C94B51EFC
:100230000C940000A0E1B0E0E0E2F1E00C94161EA6
:100240004F8358878B879C87172F80913C01882389
:1002500009F4BEC0862F660F990BAA0BBB0B8D87C6
:100260009E87AF87B88BBC01CD010E94FD1C20E0AA
:1002700030E040E05EE36D877E878F87988B6D85E9
:100280007E858F8598890E94891D20913801309143
:10029000390140913A0150913B016D877E878F87EC
:1002A000988B6D857E858F8598890E94591C962E26
:1002B000A72EB82EC92E812F110F990BAA0BBB0B9D
:1002C0008D879E87AF87B88BBC01CD010E94FD1C36
:1002D00020E030E040E05EE36D877E878F87988B7B
:1002E0006D857E858F8598890E94891D20913401B6
:1002F0003091350140913601509137016D877E87ED
:100300008F87988B6D857E858F8598890E94591C73
:10031000D62EE72EF82E092F9D86AE86BF86C88A78
:100320006D857E858F8598890E94C51C862E6C8779
:10033000DD86EE86FF86088B6D857E858F859889A4
:100340000E94C51C162F6B87882D880C990BAA0B51
:10035000BB0B8D879E87AF87B88BBC01CD010E94F8
:10036000FD1C9B01AC019D86AE86BF86C88A6D854B
:100370007E858F8598890E94581C60933801709300
:10038000390180933A0190933B01812F110F990B12
:10039000AA0BBB0B8D879E87AF87B88BBC01CD01A5
:1003A0000E94FD1C9B01AC01DD86EE86FF86088B5A
:1003B0006D857E858F8598890E94581C60933401D5
:1003C00070933501809336019093370110E060E01F
:1003D0004F815885712F8B859C850E94BB0280E0E0
:1003E00090E06096ECE00C94321EA4E0B0E0EBEFFD
:1003F000F1E00C941D1E8C0169837A8369817A81F6
:100400000E941E03F82E882381F101158EE718073C
:1004100089F5A981BA8115968C91882331F12091B3
:10042000D20130E0C901019665E070E00E94F61D3E
:100430008093D2018091D2019091D301A091D401F7
:10044000B091D50189839A83AB83BC83BC01CD0174
:100450000E94BB0CE091D201F0E0EE0FFF1FE050D4
:10046000FF4F808191810E944A118F2D2496E5E0F3
:100470000C94391E01309EE71907B9F7A981BA819A
:1004800015968C91882389F380913C0191E089270E
:1004900080933C01EACFA1E1B0E0E1E5F2E00C9409
:1004A0001E1E81E1E7E1F1E0DE01119601900D925F
:1004B0008A95E1F7FE013196AE014E5E5F4F61E035
:1004C00070E08191A82FA295AF70B0E091962C9129
:1004D00091978F708B0102C0000F111F8A95E2F770
:1004E000C801922F982B91969C93919792969C91EC
:1004F00092978095892392968C934E175F0709F700
:100500000E94800D6196E4E00C943A1EA4E0B0E0F5
:10051000ECE8F2E00C94201E81E08093D2018091FF
:10052000D2019091D301A091D401B091D501BC0129
:10053000CD010E94BB0C0E94C90C2496E2E00C94F1
:100540003C1E0E94B60C6093D2017093D30180933D
:10055000D4019093D501663010F00E948602E0919C
:10056000D201F0E0EE0FFF1FE050FF4F808191813C
:100570000E944A110895ACE0B0E0E1ECF2E00C9486
:100580001C1E4F8358878B017C010E94FE1380FF45
:1005900018C080913E01080F00933E0180913D01FB
:1005A000180F10933D010D332CF110923E01FF24E2
:1005B000FA94103134F110923D01EE24E39410E0EE
:1005C00000E009871A87EB86FC8686E0FE013796F5
:1005D000DE01119601900D928A95E1F729813A8109
:1005E0004B815C816D817E8180E090E02C96E6E01D
:1005F0000C94381E043CECF610923E01FF24F39458
:10060000D8CF113FE4F610923D01EE24EA94D7CF03
:10061000642B682B611105C0ECEAF0E085919491A0
:10062000089581E090E008950E940803089581E014
:1006300008950E941703089581E008950E9417030A
:10064000089508950E9421030895A6E0B0E0EBE22A
:10065000F3E00C941F1E49835A839E83309144011A
:1006600089819A8131111AC03E81332399F0222366
:1006700089F00E947B08182F682F89819A810E9437
:10068000630869817A81812F0E940F0F2696E3E02B
:100690000C943B1E0E946F08182FF3CF0E947B081A
:1006A00069817A81F1CFFC01262F408151816281DD
:1006B0007381848195810E9425030895CF93DF93F0
:1006C000D82FC92F61E00E9453036D2F7C2F0E9409
:1006D0001903DF91CF910895CF93DF93D82FC92FBE
:1006E00060E00E9453036D2F7C2F0E942203DF9154
:1006F000CF91089581E008950E947A030895CF93E1
:10070000C82F0E9435078C2F0E947C032FEF84E3B3
:100710009CE0215080409040E1F700C00000CF9164
:10072000089581E00E947F030E94AC15089580E047
:100730000E947F030E94D01508950F931F93CF93BB
:10074000DF938C0161E00E945303EC01B8010E9429
:10075000F5018823B1F1B801CE010E94AB138823C3
:1007600081F1B801CE010E946012882351F1B801D5
:10077000CE010E943512882321F1F801858188235A
:1007800081F0CA35FCE7DF0739F178F4C130ECE7D6
:10079000DE07F9F0C330FCE7DF07C9F0C115DC471D
:1007A00071F0C8010E941C030DC0CB35ECE7DE07D9
:1007B000B1F0CC35DC47A9F70E947D0CF2CF0E9446
:1007C000910380E0DF91CF911F910F9108950E94D6
:1007D0008F0C0E949703F5CF0E94870CE2CF0E94F6
:1007E0008B0CDFCF0E94D2140E941B040E940411C4
:1007F00008950E941F040E94D7140895089581E06F
:1008000008950895CF93DF93D82F0E94FF03C82F38
:10081000882319F08D2F0E9401048C2FDF91CF9136
:1008200008950895CF93C82F0E94FE038C2F0E9435
:100830000204CF91089580E00E94120408950E945E
:10084000F1130E9412040895CF930E94F113C82F50
:1008500080913F018C1779F0C0933F010E945C1595
:100860006093400170934101809342019093430152
:100870008C2F0E941204CF910895ADE0B0E0E3E424
:10088000F4E00C94201E488759876A877B878C8701
:100890009D8791110E94BA0B1F8286E0FE01389657
:1008A000DE01119601900D928A95E1F78D818111FB
:1008B0000DC029813A814B815C816D817E818F8160
:1008C0000E94000B2D96E2E00C943C1ECE01019696
:1008D0000E945E038111EDCFF5CFFC018481813050
:1008E00021F4808191810E94AD08089593E3980FCF
:1008F000933118F490E00E9450110895CF93C82FBF
:10090000882399F08CEF8C0F813A88F48C2F0E9409
:100910002F14882329F08C2F0E9474140E942B0C12
:100920008C2F0E946C140E942B0CCF91089580E2B2
:100930008C0F883048F4C77081E001C0880FCA95D9
:10094000EAF70E949B0BEFCF83E38C0F833168F7AC
:1009500061E08C2F0E947604E8CF8823F1F09CEFB1
:10096000980F913A28F40E9474140E942B0C089559
:1009700090E2980F983050F4877091E001C0990F81
:100980008A95EAF7892F0E94A10BEFCF93E3980F86
:10099000933118F460E00E94760408951F93CF937A
:1009A000DF93182FEB010E947E04209739F4812FEA
:1009B0000E94AD04DF91CF911F9108958FE99FE0D0
:1009C0000197F1F700C000002197EFCF60E070E0E1
:1009D000893311F460E570E00E94CE040895882305
:1009E00021F00E949B0B0E942B0C0895882321F07C
:1009F0000E94A10B0E942B0C0895A0E0B0E0E3E060
:100A0000F5E00C941A1E6C01D62FC72FFC0105814E
:100A1000F680F2948FE0F8220E94900BE82E882353
:100A2000F9F0E02E0023E1F08C2F807F803461F01C
:100A300080E28D0F8830A0F18C2F807E803221F4EF
:100A4000D23070F1FF2061F18091D70182FF28C080
:100A500082E00E94500C0E94900B91E0E82EE92663
:100A60008C2F82958F70883009F4CFC0B0F5843018
:100A7000C8F41C2F1F70823008F440C0C07FC03201
:100A800011F01295107FDD2309F467C0D13009F40D
:100A900097C0002309F4A3C0FF2009F47AC041C025
:100AA000E12CDECF853009F4ABC0EE2089F00E9446
:100AB0008C0B80FD0DC0F60115820E94860B0E94F2
:100AC000C007C6010E9408070E94860B0E94D0073B
:100AD000CDB7DEB7E8E00C94361E893009F40CC1BE
:100AE0008A5F8F70823008F7D23F09F016C18C2FD1
:100AF0008F7101110FC10E94C007B6C0C03110F044
:100B00001295107F002399F0112359F080E28D0F88
:100B1000883010F0D11107C0812F0E949B0B0E94DA
:100B20002B0C8D2F28C0812F0E94AC0BF8CF8D2F5E
:100B30000E94AD04112309F4B8CF80E28D0F8830F4
:100B400010F0D11104C0812F0E94A10B03C0812F8E
:100B50000E94B20B0E942B0CA8CF8091D70182FD7E
:100B600014C0002359F0112329F0812F0E949B0B00
:100B70000E942B0C80E00E947E0497CF80E00E94B0
:100B8000AD04112309F491CFDECF002369F0F110F9
:100B900004C0812F0E94EF0488CFF1E0FF1285CFBF
:100BA000812F0E94D20B81CFF1107FCF812F0E9425
:100BB000F604812F0E94DE0B812F0E94C10B75CF9E
:100BC000002329F025E02F1508F46FCFE2CF84E051
:100BD0008F1508F46ACF812F0E94F60466CFFF209C
:100BE000D1F3D93349F49FEFE7EEF3E09150E040C1
:100BF000F040E1F700C000008D2F0E94AD0455CFFA
:100C0000602F8D2F0E94760450CF8C2F837081111E
:100C100039C0011129C04D2F429546954770440FA8
:100C2000440F2D2F2F7030E0042E02C0220F331FEF
:100C30000A94E2F780E090E0D4FF09C08FE090E0F2
:100C400002C0880F991F4A95E2F780959095C69546
:100C5000C695C370822B932BC23071F0C33079F0EC
:100C6000C13039F00E9490070E94F1130E941204D3
:100C70001CCF0E948707F8CF0E949907F5CF0E94EA
:100C80008407F2CF002361F1C0FFEECF4D2F4295D4
:100C900046954770440F440F2D2F2F7030E0042EDF
:100CA00002C0220F331F0A94E2F780E090E0D4FFE5
:100CB00009C08FE090E002C0880F991F4A95E2F7C3
:100CC00080959095C695C695C370822B932BC230A4
:100CD00069F0C33071F0C13031F00E94FB07C4CF1E
:100CE000823010F2D3CF0E94F207BECF0E940408D8
:100CF000BBCF0E94A807B8CFCF70002339F08C2F4C
:100D00000E94C0078D2F0E94EF04AECF8D2F0E944E
:100D1000F6048C2F0E94D007A7CFD33F70F4D03FAA
:100D2000B9F0D13F89F1002309F449C0FF2009F44B
:100D300043C08D2F0E947E0497CFD33FB9F0D43F9C
:100D4000F9F00111F3CFF11047C08C2F8F71E2CF72
:100D5000002349F024E02F1508F486CF8C2F8F71E3
:100D60000E94E20781CF85E0F816F6CF002329F034
:100D70008C2F8F710E94B40777CF0E94AF0774CF7A
:100D80008091D70182FD05C08C2F8F71002311F255
:100D9000B2CE002331F063E08C2F8F710E94320CB1
:100DA00063CF81E00E94500C91E09F1508F05CCF6A
:100DB00082E00E94500C58CF8C2F8F719CCEFF2068
:100DC00021F2D93349F4EFEFF7EE23E0E150F040A0
:100DD0002040E1F700C000008D2F0E94AD0444CFF9
:100DE0000F931F93CF93DF93EC01688179818D81FD
:100DF0000E94BA088C010E940D080E948307B80166
:100E0000CE010E94FD04DF91CF911F910F910895B3
:100E1000CF93DF93EC018C81882399F0CE010E945F
:100E20009D03811111C00E94900B882351F08D8188
:100E3000882339F08091D70182FF03C082E00E94AD
:100E4000500CDF91CF910895CE010E94F006CE01A3
:100E50000E946C03F6CF0E94BA0B0E942B0C0895DF
:100E60000E947C140E942B0708950E94A90B0E94E7
:100E700030070895282F92959F70963091F060F476
:100E8000925F9F70923030F481E0203F79F030F42F
:100E9000283E30F080E008959A5FF3CF243FD1F7E9
:100EA000089581E0283EE0F3213FF9CF0895FC0149
:100EB0008481882339F0808191810E94AD080E944D
:100EC0003A07089580E00895A6E0B0E0EAE6F7E08A
:100ED0000C94201E2696E2E00C943C1EA7E0B0E0A5
:100EE000E4E7F7E00C94201E2796E2E00C943C1E09
:100EF00008950E94780708950E94790790934C0105
:100F000080934B01089508950E947C0708952091D5
:100F10004B0130914C01822B932B0E947C0708954A
:100F200020914B0130914C01822393230E947C0736
:100F3000089520914B0130914C01822793270E9404
:100F40007C0708950E94780708950E94A2070895DB
:100F50000E94A50790934A0180934901089580E07B
:100F600090E00E94A807089521E030E0A90102C0A6
:100F7000440F551F8A95E2F7CA010E94A8070895F9
:100F800021E030E002C0220F331F8A95E2F7809102
:100F9000490190914A01822B932B0E94A807089542
:100FA00021E030E002C0220F331F8A95E2F720953E
:100FB00030958091490190914A01822393230E94A8
:100FC000A807089521E030E002C0220F331F8A9560
:100FD000E2F78091490190914A01822793270E946C
:100FE000A80708952091490130914A01822B932B43
:100FF0000E94A80708952091490130914A01822357
:1010000093230E94A80708952091490130914A0135
:10101000822793270E94A807089508959B0167706F
:1010200091E001C0990F6A95EAF763E0369527953C
:101030006A95E1F7220F331F220F331FFA01E20FE7
:10104000F31F40E050E0682F70E08191DF011197BD
:101050009B01042E02C0369527950A94E2F7217071
:1010600021952827292328272C934F5F5F4F443051
:10107000510559F708959C01982F977083E0369594
:1010800027958A95E1F7220F331F220F331FFB01AB
:10109000E20FF31F40E050E080E0219130E0092EA4
:1010A00002C0369527950A94E2F721703327042E63
:1010B00001C0220F0A94EAF7822B4F5F5F4F443042
:1010C000510559F70895262F892B811107C045E452
:1010D00051E060E070E0822F0E940E080895982B86
:1010E000911107C065E471E080E090E00E943B0848
:1010F000089580E00895A0E0B0E0E1E8F8E00C9405
:10110000191E8C01E0904901F0904A0180914B0139
:1011100090914C01E82AF92ACFE0D0E0CC24C39486
:10112000D12CC6010C2E02C0880F991F0A94E2F739
:101130008E219F21892B49F4219798F7B12C8B2D73
:10114000CDB7DEB7E9E00C94351EBC2EB8018C2F6C
:101150000E94190F019781F3F2CFCF93DF93D82F1D
:10116000C92F0E947B086D2F7C2F0E94190FDF91E1
:10117000CF9108951F93CF93DF93162FD72F909180
:101180004401992341F0862F972F0E94AD08DF91EB
:10119000CF911F910895882381F0862F972F0E9469
:1011A0007B08C82F682F812F9D2F0E946308612F15
:1011B0007D2F8C2F0E94190FEACF862F972F0E9428
:1011C0006F08C82FF4CF0F931F93CF93E0914D0179
:1011D000C7E080914E018E1304C0CF911F910F91F3
:1011E00008950E2F10E0CE9FF0011124E15BFE4F19
:1011F00020813181428153816481758186810E9481
:101200006E07F8013196E770E4CF209187013091A5
:1012100088014091890150918A0160918B01709100
:101220008C0180918D010E946E07089580918D013F
:10123000803178F480918C01882359F0E0914D0140
:1012400020914E01309188014091870157E02E1383
:1012500001C008956E2F70E05E9FF0011124DF0140
:10126000A15BBE4F14968C911497882361F111965F
:101270008C911197831327C08C91841324C01596E9
:101280008C91159781111FC012968D919C91A09100
:101290008901B0918A018A1B9B0B883C910598F4C7
:1012A00080918D018F70806180938D01EB5AFE4F8C
:1012B00080818F708061808387E891E00E940807B9
:1012C0000E94E3080895FB013196E770C0CFE091DA
:1012D0004D0190914E0127E0E91302C080E008958E
:1012E000AE2FB0E02E9FF0011124E15BFE4F318163
:1012F000361306C03081381303C03581341304C05F
:10130000FD013196E770E8CF81E008958F929F92BA
:10131000AF92BF92DF92EF92FF920F931F93CF9302
:10132000DF93CDB7DEB72D970FB6F894DEBF0FBEB3
:10133000CDBF8C0186E0F801DE01189601900D9278
:101340008A95E1F7F801E080F580A280B38084817E
:1013500097E8892E91E0992E90918B0191111BC0F5
:10136000882309F4FCC0FF2009F43DC1C8010E9494
:101370005707882309F437C187E0F801D4010190A9
:101380000D928A95E1F7C4010E946D040E9416092E
:101390000E940509E4C0D0908C0120918901309110
:1013A0008A01A501421B530BDD2009F4DBC0483C38
:1013B000510508F0A6C0882309F4D1C09091880196
:1013C000918080918D01803108F06BC0991228C006
:1013D000909187019E1124C0F1105DC08F708061D3
:1013E00080938D010E94050987E891E00E9408071B
:1013F00080918D01F8018683F12C8F2D2D960FB6EB
:10140000F894DEBF0FBECDBFDF91CF911F910F913A
:10141000FF90EF90DF90BF90AF909F908F900895D6
:10142000F11039C040E0692D8E2D0E94670940E01F
:10143000692D8E2D0E946709F82E8111DDCF8885D8
:1014400099850E94AD08292F22952F70903450F471
:101450009F70223080F0992399F0F80196819031A5
:1014600078F4CBCF2A5F2F70223078F0C8010E9429
:101470000807FD2CC2CF992319F0882309F4BDCFAA
:10148000805E883008F4B9CFF1CF803F08F4B5CF43
:10149000815F8230F7CF80918D01816080938D01D3
:1014A000ABCF991207C0909187019E1103C0FF2016
:1014B00009F479C0C8010E945707882309F493C032
:1014C000FF2009F490C080918D01803288F0209136
:1014D0008701309188013A832983BC82AB82909145
:1014E0008B019D831E828F83CE0101960E94080787
:1014F00087E0F801A7E8B1E001900D928A95E1F745
:1015000045CF90918D019031A0F4488559856A8529
:101510007B858C859D850E94640787E891E00E9409
:10152000080787E0F40111928A95E9F70E940509FE
:1015300063CF8823A1F02091880181812813BACF3D
:10154000809187018E11B6CFF110B4CF9683C80178
:101550000E94080787E0F40111928A95E9F7FF24B9
:10156000F3944BCF483C510508F041C08823B9F3B0
:10157000FF20C9F190918801818198132AC0809140
:1015800087018E1126C080918D0180FD19C08031A8
:10159000B8F08683807F803F39F08681982F907FD6
:1015A000905F8F70892B8683C8010E94080787E0AF
:1015B000F801A7E8B1E001900D928A95E1F7E8CE35
:1015C00087E0F801A7E8B1E001900D928A95E1F774
:1015D000C6CFC8010E94570781118ACF80918D0123
:1015E000816080938D01C8010E940807B8CF4885AB
:1015F00059856A857B858C859D850E94640791CF7E
:10160000AEE0B0E0E6E0FBE00C941F1E28873987CF
:101610004A875B876C877D878E87CE0108960E94FC
:1016200086098823B1F06C85662341F028853985C9
:101630004A855B857D858E850E946E0717E08091C7
:101640004D0190914E0189133EC02E96E3E00C941B
:101650003B1E87E0FE013896DE01119601900D9247
:101660008A95E1F720914E0140914D018C858823A8
:1016700029F330E0C90101968770992750E084175B
:10168000950799F097E0929FD001939FB00D112498
:10169000A15BBE4FFE01319601900D929A95E1F744
:1016A00080934E010E94E308C9CF0E943507109233
:1016B0004E0110924D0187E0E7E8F1E0DF011D9255
:1016C0008A95E9F7BBCF189FC0011124815B9E4F1B
:1016D0000E948609882309F4B8CFE0914D011E9F2E
:1016E000F0011124E15BFE4F208131814281538161
:1016F0006481758186810E946E0780914D0190E022
:1017000001968770992780934D0199CF809196011A
:10171000869586958695089580919601877008959F
:1017200090919601977081E0911101C080E0089539
:101730008091A20108959091A201982B9093A2010B
:101740000895982F90958091A20189238093A201FA
:1017500008951092A20108959091A101982B909361
:10176000A1010895982F90958091A10189238093DC
:10177000A10108951092A101089508950E94BD0B42
:10178000089590919701292F2823222331F08095E5
:101790008923809397010E94BE0B089508950E94AB
:1017A000CE0B089590919801292F2823281729F00E
:1017B000982B909398010E94CF0B089590919801D7
:1017C000292F2823222331F08095892380939801A3
:1017D0000E94CF0B089580919801882329F01092E0
:1017E000980180E00E94CF0B08950F931F93CF9331
:1017F000DF9300910A0110910B01C091A201809129
:10180000A101C82BD0919801DD2331F00E941B1457
:1018100081110E94EB0BCD2BF801C083C0910A010E
:10182000D0910B0148E050E06EE871E0CE010E94DB
:10183000471E892B59F088E0FE01AEE8B1E0019027
:101840000D928A95E1F7CE010E940114DF91CF91AC
:101850001F910F9108950E94F50B089508950E941D
:101860002E0C08959091D70192FF11C098E0899FA6
:1018700090011124622B609396010E94C007809111
:1018800096018695869586950E942F0C08950E9454
:10189000C00708951092960180E00E942F0C0895D1
:1018A000909196018095892380939601282F277027
:1018B00021110DC0891759F09091D70192FF07C0EF
:1018C0008695869586950E94D0070E944A0C0895B9
:1018D0009091D70192FB222720F9281769F080FB0D
:1018E00092F99093D7018091D6019091D7010E94EF
:1018F000B00C82E00E94500C08958091D70182FBC9
:10190000882780F991E089270E94680C089581E07A
:101910000E94680C089580E00E94680C08956FEFA3
:101920007FEF80E090E00E949F1E089580E090E0AD
:101930000E946B1E9C0181E0253E3E4F09F080E035
:10194000089582E090E00E945D1E089583E090E09B
:101950000E945D1E089584E090E00E946B1E089531
:10196000BC0184E090E00E949F1E08958FE090E00B
:101970000E94651E0895AB01BC018FE090E00E94BB
:10198000931E0895AB01BC0183E190E00E94931E79
:10199000089560E070E0CB010E94C20C0895A8E0B9
:1019A000B0E0E5EDFCE00C94201E65EE7EEF80E0FB
:1019B00090E00E949F1E60E082E090E00E94811E05
:1019C00081E090E090934C0180934B0161E083E0D3
:1019D00090E00E94811E60E074E184E090E00E944B
:1019E0009F1E60E086E090E00E94811E60E087E03C
:1019F00090E00E94811E40E050E0BA0188E090E053
:101A00000E94931E60E083E290E00E94811E60E0ED
:101A10008CE090E00E94811E60E08DE090E00E94EA
:101A2000811E19821A821B821C821D821E821F82C5
:101A3000188648E050E067E170E0CE0101960E9410
:101A4000711E40E050E0BA018FE190E00E94931EC9
:101A50000E9486022896E2E00C943C1E0E94CF0C65
:101A60000895682F8EE090E00E94811E0895A6E000
:101A7000B0E0EDE3FDE00C941E1E0E9450158C01B9
:101A80008091A3019091A4018017910779F01982A8
:101A90001A820E945015BC0149815A8180E090E071
:101AA0000E943D041093A4010093A3012696E4E054
:101AB0000C943A1E0E945C156093AE017093AF01C6
:101AC0008093B0019093B1016093AA017093AB0130
:101AD0008093AC019093AD0108950E945C156093D2
:101AE000AE017093AF018093B0019093B101609308
:101AF000A6017093A7018093A8019093A90108956E
:101B00000895089508950E94820D089581E190E15D
:101B10000E9499100E94810D0E944B02089581E05D
:101B200008950E948F0D08950E948F0D08950895C5
:101B300008950E94970D0E94980D08950E94960C9A
:101B4000811102C00E942E0D0E94A10C8093B2014F
:101B50000E94AB0C9093D7018093D6010E94A60CF3
:101B600090E00E9484078091490190914A010E946F
:101B7000A50708950E9447150E9428100E949E0DF7
:101B80000E9411040E94AF100E94830D0895A6E0E8
:101B9000B0E0EDECFDE00C941E1E0E94910D811151
:101BA0000DC00E94370D0E94041181110E946D0D1D
:101BB0000E9424042696E4E00C943A1E0E943410FD
:101BC0001091A50180E00E941B10181751F380911D
:101BD000B20181FD0E9421100E94940D082F80E027
:101BE0000E941B10182F9091A501891303C00E9419
:101BF0005A0DD9CF982790FF0EC0002361F01982AB
:101C00001A820E945015BC0149815A8181E0912FAE
:101C100091700E943D041093A501E9CF1F93CF93CB
:101C2000DF930E941E0FEC01811522E5920708F058
:101C30004DC0811540E5940708F0C5C0883E910568
:101C400088F0811550E4950728F199270E941E0F0E
:101C5000CC27DF70C82BD92BD06ACE01DF91CF9172
:101C60001F910895803E9105C0F7853A910550F483
:101C7000049798F781E0219709F080E0C82F80E071
:101C8000D82FEBCF8D5C9109D065439730F3C0E03E
:101C9000D0E0E3CFC11590E2D90708F0ADC0CE0186
:101CA0009A9581159F4198F78D2F0E94C20F182F8A
:101CB000CE0199270E941E0F212F30E0322F2227BC
:101CC000E901CC27DF71C82BD92BC7CF803842E57B
:101CD0009407C0F5803652E5950708F055C0C0342A
:101CE00082E5D807B0F08C2F86958695877020E224
:101CF000829FC0011124C37021E030E0A90102C01D
:101D0000440F551FCA95E2F7EA01C82BD92BDC68AE
:101D1000A4CFC03252E5D50780F58C2F86958695E5
:101D200020E2829FC0011124C37021E030E0A901AC
:101D300002C0440F551FCA95E2F7EA01C82BD92B00
:101D4000DD688BCF803C52E5950758F48F71C03A1F
:101D5000D24578F590E0982F8827EC01C46FD06ABF
:101D60007CCF805C9245809708F091CFDC2FCC2708
:101D7000CC27DF71C06FD06A70CFCF71D0E0DC2F7D
:101D8000CC27C16FD06A69CF86958695877020E28F
:101D9000829FC0011124C37021E030E0A90102C07C
:101DA000440F551FCA95E2F7EA01C82BD92BDA6810
:101DB00054CF0E94C20FC82FD0E0DC2FCC27CC27F5
:101DC000DF71D0624ACF8F710E94C20F65E0D69555
:101DD000C7956A95E1F7CF70D0E0DC2FCC27282F8C
:101DE00030E084FF05C054E0220F331F5A95E1F71D
:101DF000C22BD32BD06931CF8D2F8F710E94C20F90
:101E0000182FCE0199270E941E0F212F30E0322F6C
:101E1000222722273F71282B392BE901D2CF672BAC
:101E2000611104C040E00E941403089580E090E036
:101E300008950E940F0F0E940E0E0895803E910596
:101E4000D1F1C8F48133910509F47FC048F4893297
:101E5000910509F46FC08A32910509F47DC0089597
:101E600089339105E1F082389105C9F085339105F8
:101E700009F45BC00895843E9105D1F148F4823E97
:101E8000910531F1833E910541F181EE90E0089595
:101E9000863E9105C1F1873E9105E1F108952091BB
:101EA000D6012370211165C02091D70123FF14C0F2
:101EB00089E290E008952091D60120FD43C0309141
:101EC000D70130FF09C024FF4EC080E090E00895A4
:101ED0002091D60122FDF7CF08952091D60122FD51
:101EE00045C03091D70130FD44C024FFF5CFEDCF80
:101EF0002091D70121FFF0CF8091D60184FDE5CF5D
:101F000087EE90E008952091D60123FFE5CF24FDD0
:101F1000DCCFF6CF2091D60123FD2EC03091D70122
:101F200031FFE3CF84EE90E008952091D60125FFA4
:101F3000D3CFBECF2091D60125FD21C02091D7015E
:101F400023FFCACF89E390E008952091D60126FFB0
:101F5000C3CF8AE290E008952091D60126FFBCCF3E
:101F600081E390E0089583EE90E0089582EE90E0A2
:101F7000089580EE90E0089586EE90E0089585E360
:101F800090E0AACF9091D60192FF10C041E0282F97
:101F90002471243009F040E031E0282F28712830E6
:101FA00009F030E0431711F02CE0822793FF10C0B6
:101FB00041E0282F2471243109F040E031E0282F3E
:101FC0002871283109F030E0431711F02CE0822706
:101FD0003091D70130FF10C051E0282F21712130FE
:101FE00009F050E041E0282F2871283009F040E046
:101FF000541711F029E0822731FF10C041E0282F4B
:102000002171213109F040E031E0282F2871283179
:1020100009F030E0431711F029E0822794FD877E14
:10202000089580E0089508950E941310089508957A
:102030000E9417100895E82FF0E0E752FE4F8081CC
:10204000089508950895860F911DFC01108208954A
:102050000E9422101092D9011092D80181E00E94B2
:1020600059100E9414100895A1E0B0E0EAE3F0E1F5
:102070000C941F1E198260E0CE0101960E9423106D
:102080009091D801898121E0981310C020E041E0AF
:1020900069ED71E088ED91E00E945A10182F0E94BE
:1020A0001810812F2196E3E00C943B1E8093D801F9
:1020B000EECF0895A0E0B0E0E0E6F0E10C941B1E46
:1020C000D82EE92EF62E072F122F222391F0C42F9F
:1020D000D0E0AE01682F792F8F2D902F0E94471EE0
:1020E000892B69F0AE016D2D7E2D8F2D902F0E94D2
:1020F000541E812FCDB7DEB7E7E00C94371E10E0F9
:10210000F8CF0E94C70D08950E94E9140E94181785
:102110000E94860D0E9432170E94BA0D0E943F173E
:102120000E9444170E9481100E945E170E94990D20
:10213000F7CF90933301809332010895089521E001
:1021400030E0F90102C0EE0FFF1F4A95E2F7AF0140
:10215000662311F08E2B0895409584230895E09115
:102160002901F0912A0109950E94A1020E949E1066
:102170000895CF9363EB71E08AEB91E00E9487149E
:10218000C82F882321F08AEB91E00E940C149091D3
:10219000BB0186E0EAEBF1E0DF01282F1D922A95D2
:1021A000E9F79093BB01A3EBB1E001900D928A9502
:1021B000E1F781E0C11103C0911101C080E081709D
:1021C000CF910895ACE0B0E0E8EEF0E10C94201E71
:1021D0004F8358878B879C87719579876A8786E0BC
:1021E000FE013796DE01119601900D928A95E1F776
:1021F00029813A814B815C816D817E8180E090E014
:102200002C96E2E00C943C1EE0912B01F0912C0105
:102210004091BA015091BB016091BC017091BD0128
:102220008091BE019091BF010995F42FE52FCB015C
:10223000A9016F2F7E2F0E94E210F42FE52FCB0112
:102240002093BA013093BB01F093BC01E093BD0130
:102250006093BE019093BF01A9016F2F7E2F0E9452
:102260001A012093BA013093BB014093BC015093F3
:10227000BD016093BE017093BF010E94B91081112E
:1022800006C08091B9011092B9018170089581E072
:1022900090E0F9CFE0912D01F0912E01099508957C
:1022A000AC01815D9109089748F4415D8091BB01C3
:1022B0000E949F108093BB010E94B9100895ACE06A
:1022C000B0E0E5E6F1E10C941E1E4F835887162F0F
:1022D000072F8B879C870E94EC11811104C09111FC
:1022E00002C0902F812F89879A8786E0FE0137965A
:1022F000DE01119601900D928A95E1F729813A81CC
:102300004B815C816D817E8180E090E02C96E4E0E1
:102310000C943A1E2C9808952C9A08953E9846984D
:1023200098E080E02F9825E02A95F1F7000026B18B
:1023300026FB222720F9880F822B2F9A25E02A9549
:10234000F1F7000091509111EDCF08953E9A27E0EA
:1023500030E090E02F98AC01022E02C055954795D1
:102360000A94E2F740FF0EC0469A4AE04A95F1F718
:1023700000C02F9A2150310968F785E18A95F1F75D
:10238000000008954698F1CFCF93C82F0E948A117C
:102390008C2F0E94A6110E948E11C82F85E08A956D
:1023A000F1F700000E948C118C2FCF910895CF93EC
:1023B000DF93D82FC62F0E948A118D2F80680E942C
:1023C000A6118C2F0E94A6110E948C11DF91CF9133
:1023D000089587FD80680895CF93DF930E948A1146
:1023E00083E60E94A6110E948E11C82F0E948E11B2
:1023F000D82F0E948C118C2F0E94E911C82F8D2F8D
:102400000E94E911982F8C2FDF91CF910895279A80
:102410003E9A249A6AE58AE30E94D7112FE78FEA51
:1024200092E0215080409040E1F700C000000E94FF
:10243000EC11089561E08D37910548F06DE0863D1F
:1024400026E0920720F46DE770E00E94F61D6061BF
:1024500089E10E94D711089589E10E94C411807119
:102460002DE7829FC00111240895CF93DF93EB01E4
:1024700086319C4719F50E94980B9D819923A1F004
:102480008A7A91E0811101C090E09093C001882385
:1024900049F085E30E946C140E942B0C80E0DF91D0
:1024A000CF91089589E2F6CF8091C001882321F071
:1024B00085E30E947414F0CF89E2FBCF81E0EFCF77
:1024C000CF93DF93EC01FB018581882309F4D2C00F
:1024D0009E0130572332310508F0B2C00E94AB0C88
:1024E0009093D7018093D601FE01E150F047E2328C
:1024F000F10520F4E954F14E0C940A1E8091D601A6
:1025000081608093D60193C08091D70188608093C9
:10251000D7018DC08091D6018260F3CF8091D60122
:102520008460EFCF8091D6018860EBCF8091D70196
:102530008160EDCF8091D7018260E9CF8091D60193
:102540008061DFCF8091D6018062DBCF8091D601A0
:102550008064D7CF0E9435078091D6018068D1CFA3
:102560008091D6018C60CDCF8091D7018360CFCF91
:102570008091D6018E7FC5CF8091D701877FC7CF4D
:102580008091D6018D7FBDCF8091D6018B7FB9CF51
:102590008091D601877FB5CF8091D7018E7FB7CF4D
:1025A0008091D7018D7FB3CF8091D6018F7EA9CF47
:1025B0008091D6018F7DA5CF8091D6018F7BA1CF51
:1025C0000E9435078091D6018F779BCF8091D601ED
:1025D000837F97CF8091D7018C7F99CF8091D6014F
:1025E00082FB992790F921E0922790FB82F990FBDA
:1025F00083F987CF8091D701982F909591708E7F26
:10260000892B90FB81F983CF9091D601892F8F7B05
:1026100096FF806476CF0E9435079091D601892F6E
:1026200097FB87F980586DCF81E00E94310D809132
:10263000D6019091D7010E94B00C0E94350780E02E
:10264000DF91CF91089580E0F0CF9091D601892F4E
:102650008F7E94FF806155CF9091D601892F8E7F18
:1026600090FF81604ECF9091D701892F877F93FF94
:1026700088604DCF81E0E4CF0F931F93CF93DF931A
:10268000C42FD22FFC0185818823C9F04093C30158
:102690000E9450159093C2018093C10180E28C0F7B
:1026A000883040F4C77081E001C0880FCA95EAF70E
:1026B0000E94EF04DF91CF911F910F910895109127
:1026C000C30114133CC08091C1019091C2010E94CA
:1026D0007915883C910598F5C0E2CD0F1D1741F1A1
:1026E00080E2810F883040F4177081E001C0880FCC
:1026F0001A95EAF70E94F604C83020F0802F0E9455
:10270000E604D8CF91E08D2F877001C0990F8A958C
:10271000EAF7892F0E94EF04802F0E94E604D77009
:1027200081E001C0880FDA95EAF70E94F604C2CF73
:10273000802F0E94E604C83008F0BCCFF0CF80E2C2
:102740008C0F883008F0B6CFC77081E001C0880FC9
:10275000CA95EAF7EACF0F93FC01CB01E851FC4799
:10276000E730F10590F5E752F14E0C940A1E06E2AF
:1027700021EE41EE6AE17CE70E943C1380E00F917C
:10278000089507E225EE45EE6BE17CE7F5CF06E222
:1027900021EE40EE68E17CE7EFCF07E225EE44EE64
:1027A00069E17CE7E9CF06E221EE42EE6CE17CE7ED
:1027B000E3CF07E225EE46EE6DE17CE7DDCF08E2F0
:1027C00021E045EE6EE17CE7D7CFFB0185818111E9
:1027D0001092C30181E0D3CF9093C5018093C401CF
:1027E0000895E091C401F091C501309729F001905E
:1027F000F081E02D0995089580E008950E94F1137D
:102800000895E091C401F091C501309721F0028054
:10281000F381E02D09950895DC01E091C401F09168
:10282000C501309739F082E08C930680F781E02D66
:10283000CD010995089540910A0150910B019A012B
:102840002E5F3F4F485F5F4F80E0F90190812F5F1F
:102850003F4F91118F5F42175307B9F708958823AF
:1028600071F020910A0130910B01F9013296285F35
:102870003F4F9191981729F0E217F307D1F780E0C5
:10288000089581E008959C01FC0132968FEF90E05D
:102890004191461751F08F3F19F4411101C0892F22
:1028A0009F5F9630A9F78F3F09F40895280F311DD7
:1028B00087FD3A95F901628308959C01FC013296E7
:1028C000285F3F4F8191861303C0DF0111971C924F
:1028D000E217F307B9F70895682F80910A019091E4
:1028E0000B010E9443140895682F80910A01909172
:1028F0000B010E945D140895E0910A01F0910B0113
:10290000329686E0DF011D928A95E9F70895DC0191
:10291000FB0111969C9111978181981322C0129608
:102920008C911297882319F0928189131AC01396FB
:102930008C911397882319F09381891312C01596EF
:102940008C911597882319F0958189130AC01496E4
:102950009C91992321F081E02481291303C080E018
:1029600001C081E08170089508950E94B414089513
:102970008F5F8093C6010E94B514089583E0809311
:10298000C6010E94B51408950E94B814089581E00C
:102990008093C6010E94B51408950E94C71408953B
:1029A000089508950E94D1140895089508950E94ED
:1029B000D01408950E94D5140E9434100E94D61499
:1029C00080E00E941B10982F81E0911101C080E0EF
:1029D000089585B7806885BF85B7806885BF0895ED
:1029E0001F921FB61F9211248F939F93AF93BF9393
:1029F0008091C701811113C08091DA019091DB01B0
:102A0000A091DC01B091DD014196A11DB11D809323
:102A1000DA019093DB01A093DC01B093DD01BF915B
:102A2000AF919F918F911F901FBE1F90189580911D
:102A3000E201843031F10E94F2031092C70188E173
:102A400090E020E40FB6F894A895809360000FBE44
:102A50002093600083B7817F846083BF83B78160E8
:102A600083BF7894889583B78E7F83BF0FB6F89421
:102A7000A89580916000886180936000109260004A
:102A80000FBE08950E9435070E94F903089582E061
:102A900084BD93E095BD9AEF97BD80936E00089535
:102AA0002FB7F8948091DA019091DB01A091DC01BD
:102AB000B091DD012FBF0895A4E0B0E0E2E6F5E1BA
:102AC0000C94201E8FB7F8942091DA013091DB012D
:102AD0004091DC015091DD0129833A834B835C8373
:102AE0008FBF69817A818B819C812496E2E00C946E
:102AF0003C1E9C014FB7F8948091DA019091DB0164
:102B0000A091DC01B091DD014FBF821B930B0895B2
:102B100078941F921FB61F9211248F939F93AF93A7
:102B2000BF938091DA019091DB01A091DC01B0911B
:102B3000DD010196A11DB11D8093DA019093DB01A7
:102B4000A093DC01B093DD01BF91AF919F918F9174
:102B50001F901FBE1F90189581E08093E00080E2D7
:102B60008093D8001092C9008FE19EE40197F1F79D
:102B700000C0000087E090EBDC018093EB019093B4
:102B8000EC01A093ED01B093EE0188E19CE00FB65B
:102B9000F894A895809360000FBE90936000FFCFDB
:102BA00088E19CE00FB6F894A895809360000FBE72
:102BB00090936000FFCF8091D0010895089508950B
:102BC000282FCB01BA013091E2013430E1F42F70AB
:102BD0002093E9002FEF3091E80035FD07C035ED77
:102BE0003A95F1F7000021502111F5CF2091E8002E
:102BF00025FF09C040E050E00E94D6178091E80010
:102C00008E778093E8000895BC0146E050E082E0B2
:102C10000E94E0150895CF93DF93D82FC92F48E085
:102C200050E0682F792F81E00E94E01588E0ED2FB9
:102C3000FC2FA8ECB1E001900D928A95E1F7DF91AD
:102C4000CF9108958091E101811109C00E945E1920
:102C50000E94BB198091E20084608093E200089595
:102C60001092E10108950E94C71408956091DE0159
:102C700081E0611101C080E00E94BE14089590912E
:102C8000E20181E0943009F080E06091DE010E9471
:102C9000C414089542E061EC81E00E94DA1842E237
:102CA00061EC82E00E94DA189091E20181E09430B8
:102CB00009F080E06091DE010E94B81408958091CF
:102CC000E401893089F148F4823009F4A0C08330EE
:102CD00009F45AC0813041F008958A3009F487C060
:102CE0008B3009F46CC008958091E301813A09F0BA
:102CF0004AC08091E800877F8093E8008091E701D7
:102D00009091E801892B61F060E080E090E070E054
:102D10000E9425188091E8008B778093E800089541
:102D200068E088EC91E0F3CF8091E301813259F5BE
:102D30008091E7019091E801029728F58091E800E1
:102D4000877F8093E8008091E80082FF18C090910F
:102D5000F3008091F200029731F48091F10081300C
:102D600011F0863021F48091F1008093D0018091A0
:102D7000E8008B778093E8000E940E1904C08091D0
:102D8000E2018111E0CF08958091E301813AD9F702
:102D90008091E7019091E801892BA9F78091E800E3
:102DA000877F8093E8008091E80080FFFCCF8091CE
:102DB00016018093F1008091E8008E77DBCF80913F
:102DC000E301813201F78091E7019091E801892BBD
:102DD000D1F68091E800877F8093E8000E940E1969
:102DE0008091E501809316010E9435070895809136
:102DF000E301813241F68091E800877F8093E8000B
:102E00000E940E198091E6018093D101089580916E
:102E1000E301813A09F0B7CF8091E800877F809382
:102E2000E8008091E80080FFFCCF8091D101C1CF04
:102E300084B7877F84BF0FB6F894A895809160000F
:102E4000886180936000109260000FBE80E890E07F
:102E50000FB6F89480936100909361000FBE0E94BA
:102E6000CD1408950E945E190E94BB19E2EEF0E0B5
:102E700080818460808378940E943E1C08958CE059
:102E800091E00E94EC1308958091E201853031F4C5
:102E90008091E201853019F00E94421508950E9448
:102EA00017158091E001882399F30E94DA14882392
:102EB00079F30E94C0170E943507EACF08959A015E
:102EC0004091E9015091EA010E9467170895AC0111
:102ED000CB01D901252F332723303105E1F058F4F8
:102EE00021303105C9F122303105D9F180E090E07F
:102EF00020E030E01EC02132310521F122323105BF
:102F0000A9F7892BC1F16130710581F789E490E05F
:102F100023E331E00EC0CA019927413069F08230C5
:102F2000910569F0E2EEF0E0892B01F7849190E0E1
:102F30009F012D933C930895EEECF0E0F7CFEEEA7D
:102F4000F0E0F4CF892B91F06130710579F689E0DA
:102F500090E021E131E0EDCF82E190E021E231E04B
:102F6000E8CF8BE390E026EE30E0E3CF89E090E01D
:102F700028EF30E0DECF84E490E02CE731E0D9CFD9
:102F800080E189BD82E189BD09B400FEFDCF809159
:102F9000D8008F7D8093D8008091E000826080937C
:102FA000E0008091E00081FDFCCF0895AF92BF92D8
:102FB000CF92DF92FF920F931F93CF93DF936C0119
:102FC000EB018A010E942D19F82E811123C00115F1
:102FD000110539F0F80180819181C81BD90BC80E09
:102FE000D91EA12CB12C2097A9F08091E80085FD75
:102FF00022C08091E8008E778093E80001151105CA
:10300000A1F0F801808191818A0D9B1D91838083BD
:1030100085E0F82E8F2DDF91CF911F910F91FF90BA
:10302000DF90CF90BF90AF9008950E942D19882314
:10303000E1F2F82EEFCFF60181916F018093F1005C
:103040002197FFEFAF1ABF0ACECFFC019B01809101
:10305000E9019091EA018617970718F0672B61F054
:10306000C90140E0009771F441110CC08091E80063
:1030700082FF35C080E008958091E8008E778093CC
:10308000E800EECF2091E2012223A9F12530A9F139
:103090002091E80023FD2DC02091E80022FDE6CF1D
:1030A0002091E80020FFDECF3091F3002091F20064
:1030B000009719F02830310558F041E028303105EB
:1030C00009F040E02091E8002E772093E800CACF75
:1030D00041914093F10001972F5F3F4FE9CF8091DD
:1030E000E201882341F0853041F08091E80083FFC0
:1030F000BDCF81E0089582E0089583E00895FC014A
:103100009B018091E9019091EA018617970718F0D9
:10311000672B61F0C90140E0009771F441110CC0C8
:103120008091E80082FF36C080E008958091E80039
:103130008E778093E800EECF2091E2012223B1F157
:103140002530B1F12091E80023FD2EC02091E80048
:1031500022FDE6CF2091E80020FFDECF3091F30082
:103160002091F200009719F02830310558F041E025
:103170002830310509F040E02091E8002E772093B7
:10318000E800CACF44914093F100319601972F5F38
:103190003F4FE8CF8091E201882341F0853041F034
:1031A0008091E80083FFBCCF81E0089582E008951C
:1031B00083E00895982F973028F08F708093E9006E
:1031C00081E008959093E900242F762F50E098171E
:1031D00031F07091EC002091ED005091F00021FD54
:1031E00002C09F5FE8CF3091EB003E7F3093EB0051
:1031F0003091ED003D7F3093ED003091EB00316078
:103200003093EB007093EC002093ED005093F000AE
:103210002091EE0027FDE5CF80E008958091E30145
:1032200087FF13C08091E80082FF06C08091E8000C
:103230008B778093E80004C08091E2018111F2CF86
:1032400008958091E2018823D9F38091E80080FFFE
:10325000F8CF8091E8008E77ECCF2091E400309198
:10326000E50095E6A9018091EC008170882331F09A
:103270008091E80080FF06C080E008952091E8007A
:1032800022FD1BC08091E201882391F0853091F0EE
:103290008091EB0085FD10C02091E4003091E500A5
:1032A0004217530701F391509111DCCF84E0089548
:1032B00082E0089583E0089581E008950E94CD1989
:1032C0000E94D519E0EEF0E0808181608083E8ED16
:1032D000F0E080818F77808319BCA7EDB0E08C91FE
:1032E0008E7F8C9380818F7E80831092E101089580
:1032F0000F931F93CF93DF930E94CD190E94D5198E
:10330000C8EDD0E088818F77888388818068888342
:1033100088818F7D888319BC1092E2011092DE01B2
:103320001092E0011092DF0100EE10E0F8018081C0
:103330008B7F808388818160888342E060E080E0C9
:103340000E94DA18E1EEF0E080818E7F8083E2EE69
:10335000F0E0808181608083808188608083F801D3
:1033600080818E7F8083888180618883DF91CF9187
:103370001F910F910895E8EDF0E080818F7E8083AA
:10338000E7EDF0E080818160808384E082BF81E0AE
:103390008093E1010E9478190895E8EDF0E08081C2
:1033A0008E7F80831092E20008951092DA001092CE
:1033B000E10008951F920F920FB60F9211242F93E0
:1033C0003F934F935F936F937F938F939F93AF93AD
:1033D000BF93EF93FF938091E10082FF0BC0809138
:1033E000E20082FF07C08091E1008B7F8093E100C3
:1033F0000E943D1C8091DA0080FF19C08091D800A6
:1034000080FF15C08091DA008E7F8093DA00809172
:10341000D90080FF94C080E189BD82E189BD09B4F3
:1034200000FEFDCF81E08093E2010E942216809190
:10343000E10080FF19C08091E20080FF15C08091FB
:10344000E2008E7F8093E2008091E20080618093B1
:10345000E2008091D80080628093D80019BC85E09A
:103460008093E2010E9436168091E10084FF29C01A
:103470008091E20084FF25C080E189BD82E189BDA1
:1034800009B400FEFDCF8091D8008F7D8093D800D5
:103490008091E1008F7E8093E1008091E2008F7E39
:1034A0008093E2008091E20081608093E20080914D
:1034B000DE01882309F449C084E08093E2010E9480
:1034C0003F168091E10083FF29C08091E20083FFD5
:1034D00025C08091E100877F8093E10082E08093A6
:1034E000E2011092DE018091E1008E7F8093E10085
:1034F0008091E2008E7F8093E2008091E200806103
:103500008093E20042E060E080E00E94DA1880915F
:10351000F00088608093F0000E943316FF91EF91D5
:10352000BF91AF919F918F917F916F915F914F91DB
:103530003F912F910F900FBE0F901F90189519BCBF
:103540001092E2010E94301672CF8091E30087FF53
:1035500002C083E0B2CF81E0B0CF1F920F920FB6CE
:103560000F921124FF920F931F932F933F934F932A
:103570005F936F937F938F939F93AF93BF93CF93FB
:10358000DF93EF93FF9309EE10E0F8018081C09183
:10359000EC00C795CC27C7958F70FC2EF82A1082B7
:1035A000C0EFD0E08881877F888378940E94F61AE4
:1035B000F8011082888188608883CF2DCF70C08306
:1035C000FF91EF91DF91CF91BF91AF919F918F913B
:1035D0007F916F915F914F913F912F911F910F912B
:1035E000FF900F900FBE0F901F901895AAE2B0E0C9
:1035F000ECEFFAE10C941F1E83EE91E0FC010196C2
:103600002091F100208321E08B3E9207B9F70E94C0
:103610005F168091E80083FF38C08091E3019091AC
:10362000E4019A3090F5E92FF0E0E052F14E0C946D
:103630000A1E803889F0823841F58091E7018F7049
:10364000873018F58093E9008091EB0085FB88278F
:1036500080F91092E90006C08091DF019091E001AD
:10366000911182609091E800977F9093E800809399
:10367000F1001092F1008091E8008E7723C0811153
:1036800016C08091E501813011F18091E80083FF3F
:103690000AC08091E800877F8093E8008091EB006A
:1036A00080628093EB00AA96E3E00C943B1E82308C
:1036B00061F78091E501882389F01092E9008091FB
:1036C000E800877F8093E8000E940E19DECF81E03A
:1036D000933009F080E08093E001EFCF8091E70123
:1036E0008F702FEF280F263080F68093E90020910D
:1036F000EB0020FFE2CF933031F48091EB00806249
:103700008093EB00DACF9091EB0090619093EB0007
:1037100021E030E0A90102C0440F551F8A95E2F76D
:103720004093EA001092EA008091EB008860E8CFB5
:103730008111ABCF1091E5011F778091E300807874
:10374000812B8093E3008091E800877F8093E800DD
:103750000E940E198091E80080FFFCCF8091E30069
:1037600080688093E30083E0111101C082E08093C0
:10377000E2018BCF8058823008F087CF8091E5013D
:103780009091E6018C3D53E0950799F583E08A839B
:103790008AE289834FB7F894DE01139620E03EE079
:1037A00051E2E32FF0E050935700849120FF03C0D3
:1037B00082958F703F5F8F708A30C8F0895C90E08F
:1037C0008D939D932F5F243161F74FBF8091E80067
:1037D000877F8093E8006AE270E0CE0101960E9444
:1037E00025188091E8008B778093E8004ECF805DAC
:1037F000E6CF6091E7017091E801AE014F5F5F4F46
:103800000E945F17BC01892B09F43FCF8091E8002B
:10381000877F8093E80089819A810E947F18E1CF99
:10382000803809F032CF8091E800877F8093E800EC
:103830008091DE018093F1001ECF811126CF9091FF
:10384000E501923008F021CF8091E800877F8093D6
:10385000E8009093DE010E940E198091DE0188231A
:1038600031F084E08093E2010E944A160ECF8091ED
:10387000E30087FDF6CF81E0F5CF0895CF938091E7
:10388000E201882399F08091E900C091EC00C7958E
:10389000CC27C7958F70C82B1092E9008091E80063
:1038A00083FD0E94F61ACF70C093E900CF9108956E
:1038B0005058BB27AA270E94701C0C944F1D0E94D1
:1038C000411D38F00E94481D20F039F49F3F19F443
:1038D00026F40C943E1D0EF4E095E7FB0C94381D85
:1038E000E92F0E94601D58F3BA1762077307840717
:1038F000950720F079F4A6F50C94821D0EF4E0955E
:103900000B2EBA2FA02D0B01B90190010C01CA0199
:10391000A0011124FF27591B99F0593F50F4503E44
:1039200068F11A16F040A22F232F342F4427585F36
:10393000F3CF469537952795A795F0405395C9F74E
:103940007EF41F16BA0B620B730B840BBAF0915006
:10395000A1F0FF0FBB1F661F771F881FC2F70EC0A5
:10396000BA0F621F731F841F48F487957795679578
:10397000B795F7959E3F08F0B0CF9395880F08F064
:103980009927EE0F9795879508950E94CC1C68940F
:10399000B1110C94831D08950E94681D88F09F57F3
:1039A00098F0B92F9927B751B0F0E1F0660F771F63
:1039B000881F991F1AF0BA95C9F714C0B13091F059
:1039C0000E94821DB1E008950C94821D672F782F0C
:1039D0008827B85F39F0B93FCCF38695779567951E
:1039E000B395D9F73EF490958095709561957F4F8A
:1039F0008F4F9F4F0895E89409C097FB3EF4909530
:103A00008095709561957F4F8F4F9F4F9923A9F0B7
:103A1000F92F96E9BB279395F69587957795679546
:103A2000B795F111F8CFFAF4BB0F11F460FF1BC08A
:103A30006F5F7F4F8F4F9F4F16C0882311F096E91D
:103A400011C0772321F09EE8872F762F05C06623CB
:103A500071F096E8862F70E060E02AF09A95660F84
:103A6000771F881FDAF7880F9695879597F908953D
:103A700097F99F6780E870E060E008959FEF80EC21
:103A8000089500240A9416161706180609060895C4
:103A900000240A9412161306140605060895092E2A
:103AA0000394000C11F4882352F0BB0F40F4BF2B99
:103AB00011F460FF04C06F5F7F4F8F4F9F4F0895D9
:103AC00057FD9058440F551F59F05F3F71F04795CF
:103AD000880F97FB991F61F09F3F79F087950895B4
:103AE000121613061406551FF2CF4695F1DF08C0D3
:103AF000161617061806991FF1CF869571056105F0
:103B000008940895E894BB2766277727CB0197F997
:103B100008950E949C1D0C944F1D0E94411D38F079
:103B20000E94481D20F0952311F00C94381D0C9430
:103B30003E1D11240C94831D0E94601D70F3959FFF
:103B4000C1F3950F50E0551F629FF001729FBB2794
:103B5000F00DB11D639FAA27F00DB11DAA1F649F30
:103B60006627B00DA11D661F829F2227B00DA11DE3
:103B7000621F739FB00DA11D621F839FA00D611D69
:103B8000221F749F3327A00D611D231F849F600D8A
:103B9000211D822F762F6A2F11249F5750409AF0B3
:103BA000F1F088234AF0EE0FFF1FBB1F661F771F3F
:103BB000881F91505040A9F79E3F510580F00C940A
:103BC000381D0C94831D5F3FE4F3983ED4F3869533
:103BD00077956795B795F795E7959F5FC1F7FE2BAA
:103BE000880F911D9695879597F90895AA1BBB1B81
:103BF00051E107C0AA1FBB1FA617B70710F0A61BED
:103C0000B70B881F991F5A95A9F780959095BC010D
:103C1000CD010895EE0FFF1F0590F491E02D09945A
:103C20002F923F924F925F926F927F928F929F92CC
:103C3000AF92BF92CF92DF92EF92FF920F931F93BA
:103C4000CF93DF93CDB7DEB7CA1BDB0B0FB6F8946B
:103C5000DEBF0FBECDBF09942A88398848885F84AB
:103C60006E847D848C849B84AA84B984C884DF801C
:103C7000EE80FD800C811B81AA81B981CE0FD11D00
:103C80000FB6F894DEBF0FBECDBFED010895FB0166
:103C9000DC0104C08D910190801921F44150504005
:103CA000C8F7881B990B0895FB01DC0102C0019045
:103CB0000D9241505040D8F70895F999FECF92BD2A
:103CC00081BDF89A992780B50895A6E1B0E044E057
:103CD00050E00C94A71EA8E1B0E042E050E00C9444
:103CE000A71EDC01A40FB51F4150504048F0CB0186
:103CF000840F951F2E910E94821E41505040D0F794
:103D00000895262FF999FECF92BD81BDF89A0197AB
:103D100000B4021639F01FBA20BD0FB6F894FA9A13
:103D2000F99A0FBE08950396272F0E94821E0E94C3
:103D3000811E252F0E94821E242F0C94821E019624
:103D4000272F0E94821E0C94811EDC01CB01FC01F6
:103D5000F999FECF06C0F2BDE1BDF89A319600B4E4
:103D60000D9241505040B8F70895F894FFCFB81223
:103D70002C13C0128A128E12C4129212C812D412BC
:103D80009E122513A212D812A612DC120413AA1234
:103D9000E0120B13B012E612EE129612CC129A1227
:103DA000D012B412EA12FA12141323138412BC12A2
:103DB0003313C713CD13B713C113D313D913DF13A1
:103DC000191B3F1B451B3F1B451B981BBA1B451B63
:043DD000101C1D1C8A
:103DD40058028403B004400660099901DB150B16F0
:103DE400DF150416DE15013536679091929394958C
:103DF4009697C6F1F3F5F6F70007125F111A122C25
:023E04001200AA
:00000001FF
